:020000040800F2
:1000000000000220898600084517000847170008ED
:10001000491700084B1700084D17000800000000A2
:10002000000000000000000000000000516800080F
:100030004F17000800000000F16800081361000875
:10004000D9860008D9860008D9860008D986000814
:10005000D9860008D986000851170008D9860008FB
:10006000D9860008D9860008D9860008D9860008F4
:10007000D9860008D9860008D9860008D9860008E4
:10008000D9860008D98600085D170008D9860008BF
:10009000D9860008D9860008D9860008D9860008C4
:1000A000D9860008D9860008D9860008D9860008B4
:1000B000D9860008D9860008D9860008D9860008A4
:1000C000D9860008D9860008D9860008D986000894
:1000D000D9860008D9860008D9860008D986000884
:1000E000D9860008D9860008D9860008D986000874
:1000F000D9860008D9860008D9860008D986000864
:10010000D9860008D9860008D9860008D986000853
:10011000D9860008D98600087517000885170008D9
:1001200095170008D9860008D9860008D9860008E6
:10013000D98600080000000000000000D9860008F1
:10014000D9860008D9860008D9860008D986000813
:10015000D9860008D9860008D9860008D986000803
:10016000D9860008D9860008D9860008D9860008F3
:10017000D9860008D98600080000000000000000B1
:08018000D9860008D9860008A9
:1001900010B5054C237833B9044B13B10448AFF3C1
:1001A00000800123237010BDA40000200000000087
:1001B000A893000808B5034B1BB103490348AFF3EC
:1001C000008008BD00000000A8000020A8930008DF
:1001D00001F0FF01102A2BDB10F0070F08D010F8F8
:1001E000013B013A8B422DD010F0070F42B3F6D1FC
:1001F000F0B441EA012141EA014122F007047FF015
:1002000000070023F0E80256083C85EA010586EA6B
:10021000010685FA47F5A3FA87F586FA47F6A5FAA7
:1002200087F68EB9EED1F0BC01F0FF0102F00702B3
:1002300032B110F8013B013A83EA010313B1F8D15E
:100240000020704701387047002D06BF354603383F
:10025000073815F0010F07D1013015F4807F02BF78
:10026000013015F4C03F0130F0BC0138704700BFC9
:1002700081F0004102E000BF83F0004330B54FEA57
:1002800041044FEA430594EA050F08BF90EA020FC4
:100290001FBF54EA000C55EA020C7FEA645C7FEA57
:1002A000655C00F0E2804FEA5454D4EB5555B8BF7A
:1002B0006D420CDD2C4480EA020281EA030382EAEB
:1002C000000083EA010180EA020281EA0303362D7D
:1002D00088BF30BD11F0004F4FEA01314FF4801C50
:1002E0004CEA113102D0404261EB410113F0004F62
:1002F0004FEA03334CEA133302D0524263EB430319
:1003000094EA050F00F0A780A4F10104D5F1200EB6
:100310000DDB02FA0EFC22FA05F2801841F1000111
:1003200003FA0EF2801843FA05F359410EE0A5F1E5
:1003300020050EF1200E012A03FA0EFC28BF4CF016
:10034000020C43FA05F3C01851EBE37101F00045CC
:1003500007D54FF0000EDCF1000C7EEB00006EEBD9
:100360000101B1F5801F1BD3B1F5001F0CD3490863
:100370005FEA30004FEA3C0C04F101044FEA4452BA
:1003800012F5800F80F09A80BCF1004F08BF5FEA41
:10039000500C50F1000041EB045141EA050130BD21
:1003A0005FEA4C0C404141EB0101013C28BFB1F533
:1003B000801FE9D291F0000F04BF01460020B1FA7E
:1003C00081F308BF2033A3F10B03B3F120020CDA51
:1003D0000C3208DD02F1140CC2F10C0201FA0CF02F
:1003E00021FA02F10CE002F11402D8BFC2F1200C94
:1003F00001FA02F120FA0CFCDCBF41EA0C0190404A
:10040000E41AA2BF01EB0451294330BD6FEA040492
:100410001F3C1CDA0C340EDC04F11404C4F120027D
:1004200020FA04F001FA02F340EA030021FA04F38F
:1004300045EA030130BDC4F10C04C4F1200220FAE6
:1004400002F001FA04F340EA0300294630BD21FA24
:1004500004F0294630BD94F0000F83F4801306BFEA
:1004600081F480110134013D4EE77FEA645C18BFDE
:100470007FEA655C29D094EA050F08BF90EA020F75
:1004800005D054EA000C04BF1946104630BD91EA6D
:10049000030F1EBF0021002030BD5FEA545C05D170
:1004A0004000494128BF41F0004130BD14F58004AF
:1004B0003CBF01F5801130BD01F0004545F0FE4123
:1004C00041F470014FF0000030BD7FEA645C1ABF58
:1004D000194610467FEA655C1CBF0B46024650EA8F
:1004E000013406BF52EA033591EA030F41F40021BB
:1004F00030BD00BF90F0000F04BF0021704730B541
:100500004FF4806404F132044FF000054FF0000115
:1005100050E700BF90F0000F04BF0021704730B5D6
:100520004FF4806404F1320410F0004548BF4042AB
:100530004FF000013EE700BF42004FEAE2014FEA00
:1005400031014FEA02701FBF12F07F4393F07F4FDB
:1005500081F06051704732F07F4208BF704793F0DE
:100560007F4F04BF41F40021704730B54FF46074F1
:1005700001F0004521F000411CE700BF50EA0102F4
:1005800008BF704730B54FF000050AE050EA01029D
:1005900008BF704730B511F0004502D5404261EB0D
:1005A00041014FF4806404F132045FEA915C3FF44E
:1005B000D8AE4FF003025FEADC0C18BF03325FEAEB
:1005C000DC0C18BF033202EBDC02C2F1200300FA9C
:1005D00003FC20FA02F001FA03FE40EA0E0021FAC1
:1005E00002F11444BDE600BF70B54FF0FF0C4CF4AF
:1005F000E06C1CEA11541DBF1CEA135594EA0C0F61
:1006000095EA0C0F00F0DEF82C4481EA030621EA9B
:100610004C5123EA4C5350EA013518BF52EA0335D6
:1006200041F4801143F4801338D0A0FB02CE4FF088
:100630000005E1FB02E506F00042E0FB03E54FF0B8
:100640000006E1FB03569CF0000F18BF4EF0010EB0
:10065000A4F1FF04B6F5007F64F5407404D25FEAAC
:100660004E0E6D4146EB060642EAC62141EA55515F
:100670004FEAC52040EA5E504FEACE2EB4F1FD0CA1
:1006800088BFBCF5E06F1ED8BEF1004F08BF5FEA1F
:10069000500E50F1000041EB045170BD06F00046D1
:1006A00046EA010140EA020081EA0301B4EB5C047E
:1006B000C2BFD4EB0C0541EA045170BD41F4801176
:1006C0004FF0000E013C00F3AB8014F1360FDEBF9B
:1006D000002001F0004170BDC4F10004203C35DA77
:1006E0000C341BDC04F11404C4F1200500FA05F3FA
:1006F00020FA04F001FA05F240EA020001F000429B
:1007000021F0004110EBD37021FA04F642EB060110
:100710005EEA430E08BF20EAD37070BDC4F10C043A
:10072000C4F1200500FA04F320FA05F001FA04F2FE
:1007300040EA020001F0004110EBD37041F10001EA
:100740005EEA430E08BF20EAD37070BDC4F12005F5
:1007500000FA05F24EEA020E20FA04F301FA05F25D
:1007600043EA020321FA04F001F0004121FA04F205
:1007700020EA020000EBD3705EEA430E08BF20EAD5
:10078000D37070BD94F0000F0FD101F0004640000F
:1007900041EB010111F4801F08BF013CF7D041EA91
:1007A000060195F0000F18BF704703F00046520095
:1007B00043EB030313F4801F08BF013DF7D043EA66
:1007C0000603704794EA0C0F0CEA135518BF95EA1C
:1007D0000C0F0CD050EA410618BF52EA4306D1D1A3
:1007E00081EA030101F000414FF0000070BD50EAC2
:1007F000410606BF1046194652EA430619D094EA4C
:100800000C0F02D150EA013613D195EA0C0F05D135
:1008100052EA03361CBF104619460AD181EA030189
:1008200001F0004141F0FE4141F470014FF0000041
:1008300070BD41F0FE4141F4780170BD70B54FF0DC
:10084000FF0C4CF4E06C1CEA11541DBF1CEA13555C
:1008500094EA0C0F95EA0C0F00F0A7F8A4EB05043E
:1008600081EA030E52EA03354FEA013100F0888035
:100870004FEA03334FF0805545EA131343EA1263FE
:100880004FEA022245EA111545EA10654FEA0026B3
:100890000EF000419D4208BF964244F1FD0404F56C
:1008A000407402D25B084FEA3202B61A65EB0305C8
:1008B0005B084FEA32024FF480104FF4002CB6EB85
:1008C000020E75EB030E22BFB61A754640EA0C0005
:1008D0005B084FEA3202B6EB020E75EB030E22BF45
:1008E000B61A754640EA5C005B084FEA3202B6EB86
:1008F000020E75EB030E22BFB61A754640EA9C0045
:100900005B084FEA3202B6EB020E75EB030E22BF14
:10091000B61A754640EADC0055EA060E18D04FEAD2
:10092000051545EA16754FEA06164FEAC30343EA72
:1009300052734FEAC2025FEA1C1CC0D111F4801F3F
:100940000BD141EA00014FF000004FF0004CB6E738
:1009500011F4801F04BF01430020B4F1FD0C88BFD7
:10096000BCF5E06F3FF6AFAEB5EB030C04BFB6EBE2
:10097000020C5FEA500C50F1000041EB045170BDD5
:100980000EF0004E4EEA113114EB5C04C2BFD4EB02
:100990000C0541EA045170BD41F480114FF0000E86
:1009A000013C90E645EA060E8DE60CEA135594EA02
:1009B0000C0F08BF95EA0C0F3FF43BAF94EA0C0F05
:1009C0000AD150EA01347FF434AF95EA0C0F7FF47A
:1009D00025AF104619462CE795EA0C0F06D152EACE
:1009E00003353FF4FDAE1046194622E750EA4106B2
:1009F00018BF52EA43067FF4C5AE50EA41047FF4C3
:100A00000DAF52EA43057FF4EBAE12E74A0011D274
:100A100012F5001211D20DD56FF47873B3EB625258
:100A20000ED44FEAC12343F0004343EA505323FA64
:100A300002F070474FF00000704750EA013002D1D9
:100A40004FF0FF3070474FF00000704753B94AB97C
:100A5000002908BF00281CBF4FF0FF314FF0FF30C6
:100A600000F074B9ADF1080C6DE904CE00F006F8A1
:100A7000DDF804E0DDE9022304B070472DE9F0471A
:100A8000089D04468E46002B4DD18A42944669D972
:100A9000B2FA82F252B101FA02F3C2F1200120FA55
:100AA00001F10CFA02FC41EA030E94404FEA1C48A3
:100AB000210CBEFBF8F61FFA8CF708FB16E341EA9F
:100AC000034306FB07F199420AD91CEB030306F125
:100AD000FF3080F01F81994240F21C81023E634446
:100AE0005B1AA4B2B3FBF8F008FB103344EA0344EA
:100AF00000FB07F7A7420AD91CEB040400F1FF33FF
:100B000080F00A81A74240F207816444023840EA3B
:100B10000640E41B00261DB1D4400023C5E9004374
:100B20003146BDE8F0878B4209D9002D00F0EF80F7
:100B30000026C5E9000130463146BDE8F087B3FA2A
:100B400083F6002E4AD18B4202D3824200F2F98012
:100B5000841A61EB030301209E46002DE0D0C5E915
:100B6000004EDDE702B9FFDEB2FA82F2002A40F061
:100B70009280A1EB0C014FEA1C471FFA8CFE012664
:100B8000200CB1FBF7F307FB131140EA01410EFB08
:100B900003F0884208D91CEB010103F1FF3802D2AF
:100BA000884200F2CB804346091AA4B2B1FBF7F0A9
:100BB00007FB101144EA01440EFB00FEA64508D9CC
:100BC0001CEB040400F1FF3102D2A64500F2BB8009
:100BD0000846A4EB0E0440EA03409CE7C6F1200758
:100BE000B34022FA07FC4CEA030C20FA07F401FA9E
:100BF00006F31C43F9404FEA1C4900FA06F3B1FB27
:100C0000F9F8200C1FFA8CFE09FB181140EA01418B
:100C100008FB0EF0884202FA06F20BD91CEB010128
:100C200008F1FF3A80F08880884240F28580A8F180
:100C300002086144091AA4B2B1FBF9F009FB1011D2
:100C400044EA014100FB0EFE8E4508D91CEB010170
:100C500000F1FF346CD28E456AD90238614440EA13
:100C60000840A0FB0294A1EB0E01A142C846A64693
:100C700056D353D05DB1B3EB080261EB0E0101FA1C
:100C800007F722FA06F3F1401F43C5E90071002679
:100C90003146BDE8F087C2F12003D8400CFA02FCCF
:100CA00021FA03F3914001434FEA1C471FFA8CFEDF
:100CB000B3FBF7F007FB10360B0C43EA064300FBCF
:100CC0000EF69E4204FA02F408D91CEB030300F16D
:100CD000FF382FD29E422DD9023863449B1B89B224
:100CE000B3FBF7F607FB163341EA034106FB0EF3AD
:100CF0008B4208D91CEB010106F1FF3816D28B425A
:100D000014D9023E6144C91A46EA004638E72E4625
:100D1000284605E70646E3E61846F8E64B45A9D21D
:100D2000B9EB020864EB0C0E0138A3E74646EAE78C
:100D3000204694E74046D1E7D0467BE7023B61443A
:100D400032E7304609E76444023842E7704700BFA3
:100D500008B50268034B9A4200D008BD02F0CEFEEF
:100D6000FBE700BF0014004072B6FEE700B595B087
:100D70003022002108A807F0E9FC00230393049324
:100D80000593069307930193204A116C41F080511B
:100D90001164126C02F080520192019A02931C4B72
:100DA0001A6842F480421A601B6803F4804302937D
:100DB000029B012308934FF48033099302230E937F
:100DC0004FF480020F9206221092A82211921293E1
:100DD0000423139308A801F0AFFE98B90F230393DF
:100DE00002230493002305934FF4A05306934FF47A
:100DF00080530793052103A802F0ECF820B915B041
:100E00005DF804FBFFF7B0FFFFF7AEFF00380240CC
:100E10000070004008B502F057FEFFF7A7FF00F092
:100E200019F800F03FFA00F017F900F08DFB00F020
:100E300003FB00F051FA00F0A5FA00F0EBFB00F024
:100E400003FC00F041F905F071F900F0C7F805F076
:100E50007FF9FEE72DE9F0438BB00024059406945A
:100E600007940894099400944E4B1A6B42F00402C4
:100E70001A631A6B02F004020092009A01941A6B32
:100E800042F080021A631A6B02F080020192019A0A
:100E900002941A6B42F001021A631A6B02F001020B
:100EA0000292029A03941A6B42F002021A631A6BBE
:100EB00002F002020392039A04941A6B42F00802B1
:100EC0001A631B6B03F008030493049B364E2246FF
:100ED00041F62271304602F004FBDFF8D49022463E
:100EE00049F65311484602F0FCFADFF8C880224662
:100EF0004FF23F01404602F0F4FA2C4F2246042103
:100F0000384602F0EEFA42F2DC030593069401251E
:100F1000079505A9304602F051F905954FF488135D
:100F20000693079405A9304602F048F90223059379
:100F300006950794089405A9304602F03FF949F652
:100F40005313059306950794089505A9484602F0A2
:100F500035F94FF4F953059306950794089505A9BB
:100F6000304602F02BF94FF23F03059306950794A4
:100F7000089505A9404602F021F90423059306953A
:100F80000794089405A9384602F018F9224605216D
:100F9000062002F053FD062002F088FD0BB0BDE8EC
:100FA000F08300BF0038024000080240000C0240FD
:100FB000000002400004024008B506F0F7FB06F00E
:100FC00099FCFCE708B507F009FA07F04FFAFCE7CF
:100FD00008B507F02FFB07F03FFBFCE708B5114809
:100FE00005F03EF9104B1860104A0121102005F061
:100FF000D3F90F4B18600F4A00210F4805F0C4F8D1
:101000000E4B18600E4A00210E4805F0BDF80E4B3D
:1010100018600E4A00210E4805F0B6F80D4B186016
:1010200008BD00BF08940008C00000201894000804
:10103000C400002078940008B90F0008D0000020F8
:1010400030940008C50F0008C80000205494000820
:10105000D10F0008CC00002000B585B0002300931C
:101060000193029303931548154A02604FF48032AE
:10107000426083600361037680F82030C362114AC6
:101080008262C3600122C26180F83030426101F0A7
:101090002DF968B9032300930123019307230293D9
:1010A0006946064801F07AFC28B905B05DF804FBF2
:1010B000FFF75AFEEEE7FFF757FEF6E7D4000020F1
:1010C000002001400100000F00B585B0002300930F
:1010D0000193029303931548154A02604FF480323E
:1010E000426083600361037680F82030C362114A56
:1010F0008262C3600122C26180F83030426101F037
:10110000F5F868B9022300930123019300230293A9
:101110006946064801F042FC28B905B05DF804FBB9
:10112000FFF722FEEEE7FFF71FFEF6E71C010020A7
:10113000002101400100000F30B58BB00023059362
:10114000069307930893099303683B4A934204D09C
:101150003A4A934248D00BB030BD04460025019571
:10116000374B5A6C42F480725A645A6C02F48072A3
:101170000192019A02951A6B42F001021A631B6BED
:1011800003F001030293029B0C23059303230693B0
:1011900005A92C4802F012F82B482C4B036045603F
:1011A0008560C5604FF4806303614FF40063436161
:1011B0004FF4005383614FF48073C3614FF40033E5
:1011C0000362456202F022FA58B91F4BA3639C6385
:1011D00000220521122002F031FC122002F066FCF0
:1011E000B9E7FFF7C1FDF0E700240394144B5A6CF4
:1011F00042F400725A645A6C02F400720392039A29
:1012000004941A6B42F001021A631B6B03F0010392
:101210000493049B042305930323069305A909481B
:1012200001F0CCFF22460521122002F007FC12201B
:1012300002F03CFC8FE700BF00200140002101408C
:1012400000380240000002406401002010640240A7
:1012500010B503680F4A934203D00F4A93420FD050
:1012600010BD044602F58C32536C23F48073536432
:101270000C210A4802F094F8A06B02F02DFAEFE777
:10128000074A536C23F4007353640421034802F0AB
:1012900087F8E5E7002001400021014000000240FE
:1012A0000038024000B583B000220192094B196B4F
:1012B00041F4800119631B6B03F480030193019BCC
:1012C0000521382002F0BAFB382002F0EFFB03B012
:1012D0005DF804FB0038024008B50B480B4B036077
:1012E0000B4B436000238360C3604FF48042026174
:1012F00043618361C361036202F0A4FD00B908BDCC
:10130000FFF732FDFBE700BFC4010020005400409E
:10131000A086010030B589B00023039304930593A0
:10132000069307930268144B9A4201D009B030BD6E
:1013300000250195114C236B43F002032363236BBB
:1013400003F002030193019BC02303931223049330
:10135000032306930423079303A9094801F02EFFF2
:101360000295236C43F400132364236C03F40013ED
:101370000293029BDAE700BF0054004000380240AD
:101380000004024008B50E480E4B03604FF4827310
:1013900043604FF4004383600023C36003614361F3
:1013A0004FF400728261C3610362436283620A2365
:1013B000C36202F08BFF00B908BDFFF7D5FCFBE765
:1013C000180200200030014000B589B000230393CB
:1013D00004930593069307930268154B9A4202D033
:1013E00009B05DF804FB0021019103F584335A6CC8
:1013F00042F480525A645A6C02F480520192019A6B
:1014000002911A6B42F001021A631B6B03F0010395
:101410000293029BA02303930223049303230693C6
:101420000523079303A9034801F0C8FED8E700BFCE
:10143000003001400000024000B583B0002300935B
:1014400001930F480F4A0260A7224260836040F276
:10145000E732C260836100F045FC50B9002300937D
:1014600001936946064800F05FFE28B903B05DF8B5
:1014700004FBFFF779FCF1E7FFF776FCF6E700BF26
:10148000B80200200010004000B583B00368154A80
:10149000934205D0144A93420FD003B05DF804FB89
:1014A00000230093114B1A6C42F004021A641B6C67
:1014B00003F004030093009BEFE7002201920B4B23
:1014C000196C41F0100119641B6C03F010030193B7
:1014D000019B0521362002F0B1FA362002F0E6FA2F
:1014E000DBE700BF00080040001000400038024069
:1014F00000B587B0002301930293039304930593EF
:1015000002680E4B9A4202D007B05DF804FB00233C
:1015100000930B4B1A6B42F002021A631B6B03F031
:1015200002030093009B4FF4407301930223029344
:10153000059301A9034801F041FEE5E700080040DA
:10154000003802400004024000B58FB000230A9327
:101550000B930C930D9308930993019302930393B8
:1015600004930593069307932848294A026063224F
:101570004260836040F24732C2600361836100F0E1
:10158000B1FB00282FD14FF480530A930AA91F48BA
:1015900000F074FC50BB1D4800F0D0FB48BB00239A
:1015A0000893099308A9194800F0BEFD20BB302319
:1015B000019300230293022203920593082201A9BA
:1015C000124800F01FFCD0B94FF4D27302930C22E2
:1015D00001A90E4800F016FCA0B90C48FFF788FFDF
:1015E0000FB05DF804FBFFF7BFFBCCE7FFF7BCFBD8
:1015F000D1E7FFF7B9FBD2E7FFF7B6FBD7E7FFF775
:10160000B3FBE1E7FFF7B0FBE7E700BF70020020A4
:101610000008004008B50A480A4B03604FF4E13364
:10162000436000238360C36003610C2242618361D5
:10163000C36103F015F800B908BDFFF795FBFBE7A0
:10164000000300200010014008B50A480A4B03605F
:101650004FF4E133436000238360C36003610C22D5
:1016600042618361C36102F0FBFF00B908BDFFF76F
:101670007BFBFBE7480300200048004000B58BB02F
:101680000023059306930793089309930368284A58
:10169000934205D0274A934226D00BB05DF804FB55
:1016A00000210191244B5A6C42F010025A645A6C8A
:1016B00002F010020192019A02911A6B42F00102AB
:1016C0001A631B6B03F001030293029B4FF4C06388
:1016D000059302230693032308930723099305A97F
:1016E000164801F06BFDD8E700210391124B1A6CEC
:1016F00042F480221A641A6C02F480220392039A44
:1017000004911A6B42F002021A631B6B03F002038E
:101710000493049B4FF44063059302230693032331
:1017200008930723099305A9054801F047FDB4E78D
:101730000010014000480040003802400000024014
:1017400000040240FEE7FEE7FEE7FEE7FEE7704723
:1017500008B5012001F0CCFE08BD000008B5034823
:1017600001F036F8024801F033F808BDD40000203B
:101770001C01002008B5024800F09DF908BD00BF1B
:10178000B802002008B5024800F095F908BD00BF76
:101790009003002008B5024802F050F808BD00BFD1
:1017A00064010020012800D0704708B505F02EFD27
:1017B00008BD000000B583B0002200920D4B596CAB
:1017C00041F480415964596C01F4804100910099C1
:1017D0000192196C41F0805119641B6C03F0805325
:1017E0000193019B0F216FF0010002F027F903B074
:1017F0005DF804FB0038024030B589B00446002390
:101800000193214B1A6C42F020021A641B6C03F006
:1018100020030193019B02A903A801F0B1FC069BE0
:10182000CBB901F08DFC03461848A0FB03239B0CA9
:10183000013B1748174A026040F2E732C26043603A
:10184000002303618360836100F04CFA054630B1E8
:10185000284609B030BD01F073FC4300E4E70C48B2
:1018600000F0E0F805460028F2D1372002F01EF91A
:101870000F2C01D90125EBE700222146372002F089
:10188000DDF8054B1C60E3E70038024083DE1B43B4
:1018900090030020001400400400002030B4036ACC
:1018A000026A22F0010202624268846924F0730431
:1018B0000D682C4323F0020C8B6843EA0C03104D97
:1018C000A84203D005F58065A84205D123F008039E
:1018D000CD682B4323F00403094DA84203D005F53E
:1018E0008065A84205D122F440724D692A438D6972
:1018F0002A43426084614A684263036230BC704795
:101900000000014030B4036A026A22F4807202626D
:101910004268C46924F0730C0C6844EA0C0523F493
:1019200000738C6843EA0423114CA04203D004F5F1
:101930008064A04206D123F40063CC6843EA042308
:1019400023F480630A4CA04203D004F58064A042D3
:1019500007D122F440524C6942EA04128C6942EAEF
:1019600004124260C5614A68C263036230BC7047BA
:101970000000014030B4036A026A22F4805202621D
:101980004468C26922F4E6420D6842EA052223F463
:1019900000538D6843EA0533094DA84203D005F58D
:1019A0008065A84204D124F480444D6944EA85143A
:1019B0004460C2614A680264036230BC704700BF81
:1019C0000000014010B4036A046A24F001040462B8
:1019D000846924F0F00C4CEA021223F00A030B4352
:1019E000826103625DF8044B704710B4036A046AB5
:1019F00024F010040462846924F4704C4CEA02322E
:101A000023F0A00343EA0113826103625DF8044BF3
:101A10007047836823F070030B4343F00703836030
:101A20007047000090F83D30DBB2012B37D1022324
:101A300080F83D300268D36843F00103D360036847
:101A4000194A934220D0B3F1804F1DD0A2F57C42B9
:101A5000934219D002F58062934215D002F580625C
:101A6000934211D002F5784293420DD002F57052A4
:101A7000934209D0A2F59432934205D01A6842F0FD
:101A800001021A60002070479A6802F00702062AD5
:101A900007D01A6842F001021A6000207047012046
:101AA00070470020704700BF00000140704770473A
:101AB00070477047704770B504460368DE681D695B
:101AC00015F0020F10D016F0020F0DD06FF00202C9
:101AD0001A610123037703689B6913F0030F5ED03B
:101AE000FFF7E6FF0023237715F0040F12D016F05E
:101AF000040F0FD023686FF004021A6102232377CA
:101B000023689B6913F4407F4FD02046FFF7D0FF36
:101B10000023237715F0080F12D016F0080F0FD00E
:101B200023686FF008021A61042323772368DB69B6
:101B300013F0030F40D02046FFF7BAFF00232377AE
:101B400015F0100F12D016F0100F0FD023686FF0A1
:101B500010021A61082323772368DB6913F4407F9E
:101B600031D02046FFF7A4FF0023237715F0010FA3
:101B700002D016F0010F2DD115F0800F02D016F013
:101B8000800F2FD115F0400F02D016F0400F31D149
:101B900015F0200F02D016F0200F33D170BDFFF7E3
:101BA00086FF2046FFF785FF9CE72046FFF77FFF73
:101BB0002046FFF77EFFABE72046FFF778FF204681
:101BC000FFF777FFBAE72046FFF771FF2046FFF7E0
:101BD00070FFC9E723686FF001021A612046FFF722
:101BE000B7F8C9E723686FF080021A61204600F059
:101BF000E2FAC7E723686FF040021A612046FFF758
:101C000059FFC5E723686FF020021A61204600F0F3
:101C1000D1FAC3E70368324A904212D0B0F1804F44
:101C20000FD0A2F57C4290420BD002F58062904228
:101C300007D002F58062904203D002F578429042CC
:101C400003D123F070034A681343254A90422AD0F7
:101C5000B0F1804F27D0A2F57C42904223D002F50C
:101C6000806290421FD002F5806290421BD002F544
:101C70007842904217D002F57052904213D002F58C
:101C8000806290420FD002F5806290420BD0A2F5A4
:101C90009832904207D002F58062904203D002F55C
:101CA0008062904203D123F44073CA68134323F047
:101CB00080034A6913438A68C2620A688262084ADA
:101CC000904203D002F58062904201D10A6902631A
:101CD000026842F004020260012242610360704720
:101CE0000000014040B310B5044690F83D30F3B118
:101CF000022384F83D30214651F8040BFFF78AFF98
:101D0000012384F8463084F83E3084F83F3084F86C
:101D1000403084F8413084F8423084F8433084F80D
:101D2000443084F8453084F83D30002010BD80F800
:101D30003C30FFF7A9FBDBE70120704740B310B54B
:101D4000044690F83D30F3B1022384F83D3021463B
:101D500051F8040BFFF75EFF012384F8463084F846
:101D60003E3084F83F3084F8403084F8413084F8C5
:101D7000423084F8433084F8443084F8453084F8A5
:101D80003D30002010BD80F83C30FFF78FFEDBE7D0
:101D90000120704730B4036A026A22F01002026226
:101DA0004468826922F4E6420D6842EA052223F083
:101DB00020038D6843EA0513114DA84203D005F5B1
:101DC0008065A84206D123F08003CD6843EA05135D
:101DD00023F040030A4DA84203D005F58065A842D0
:101DE00007D124F440644D6944EA85048D6944EACE
:101DF0008504446082614A688263036230BC704734
:101E00000000014090F83C30012B28D010B504466A
:101E1000012380F83C300C2A1CD8DFE802F0071BB5
:101E20001B1B0C1B1B1B111B1B1B16000068FFF749
:101E300035FD00200FE00068FFF7ACFF00200AE04E
:101E40000068FFF75FFD002005E00068FFF792FDE6
:101E5000002000E00120002384F83C3010BD022067
:101E6000704710B4846824F47F4C42EA03220A438A
:101E700042EA0C0282605DF8044B704790F83C30F7
:101E8000012B78D010B50446012380F83C300223A2
:101E900080F83D300268936823F47F4323F0770392
:101EA00093600B68602B4CD029D8402B54D00CD9B0
:101EB000502B22D1CA6849680068FFF783FD502182
:101EC0002068FFF7A6FD002005E0202B0DD009D9E2
:101ED000302B0AD00120012384F83D30002384F800
:101EE0003C3010BD0BB1102B05D119462068FFF70F
:101EF00090FD0020EFE70120EDE70120EBE7B3F5CF
:101F0000805F34D0B3F5005F0CD1CB684A68896834
:101F10000068FFF7A6FF2268936843F4804393604C
:101F20000020D8E7702B24D1CB684A688968006804
:101F3000FFF797FF2268936843F0770393600020D0
:101F4000C9E7CA6849680068FFF74FFD602120684B
:101F5000FFF75FFD0020BEE7CA6849680068FFF729
:101F600031FD40212068FFF754FD0020B3E7002039
:101F7000B1E70120AFE70220704701F01F01012304
:101F800003FA01FC036A23EA0C030362036A02FA00
:101F900001F10B430362704710B50446084600295F
:101FA00042D194F83E30DBB2013B18BF0123002B35
:101FB0006ED1002851D1022384F83E30012201461F
:101FC0002068FFF7DAFF2368334A934203D002F513
:101FD0008062934203D15A6C42F400425A642368EF
:101FE0002D4A934249D0B3F1804F46D0A2F57C42AE
:101FF000934242D002F5806293423ED002F5806265
:1020000093423AD002F57842934236D002F57052AC
:10201000934232D0A2F5943293422ED01A6842F005
:1020200001021A60002032E0042908D008290DD0EE
:1020300094F84130DBB2013B18BF0123B7E794F8B5
:102040003F30DBB2013B18BF0123B0E794F84030CA
:10205000DBB2013B18BF0123A9E7042805D00828FB
:1020600007D0022384F84130A8E7022384F83F30E8
:10207000A4E7022384F84030A0E79A6802F0070240
:10208000062A07D01A6842F001021A60002010BD2B
:102090000120FCE70020FAE70000014038B50446C3
:1020A0000D4600220068FFF768FF23681D4A93422F
:1020B00018D002F58062934214D02368196A41F265
:1020C0001112114208D1196A40F24442114203D15F
:1020D0001A6822F001021A609DB9012384F83E308B
:1020E000002038BD196A41F211121142E5D1196A76
:1020F00040F244421142E0D15A6C22F400425A6448
:10210000DBE7042D05D0082D07D0012384F84130EA
:10211000E6E7012384F83F30E2E7012384F840300A
:10212000DEE700BF0000014090F83C30012B3DD0BD
:1021300010B4012380F83C30022380F83D3003685E
:102140005A689C6822F0700C0A6842EA0C025A60D5
:102150000368174A93421AD0B3F1804F17D0A2F503
:102160007C42934213D002F5806293420FD002F575
:10217000806293420BD002F57842934207D002F579
:102180007052934203D0A2F59432934204D124F0CA
:1021900080044A6814439C60012380F83D3000238A
:1021A00080F83C3018465DF8044B704702207047B9
:1021B00000000140704770474A4B5A6822F4403291
:1021C0005A605A6841680A435A600268536823F4A7
:1021D0008073536002685368016943EA01235360C6
:1021E0000268536823F04073536002685368816843
:1021F0000B4353600268936823F4006393600268A2
:102200009368C1680B439360826A374B9A4257D0F8
:102210000268936823F07063936002689368816A30
:102220000B4393600268936823F040539360026805
:102230009368C16A0B4393600268936823F00203BA
:10224000936002689368017E43EA4103936090F8CB
:102250002030002B3FD00268536843F40063536082
:102260000268536823F46043536001684B68426A14
:10227000013A43EA42334B600268D36A23F47003A5
:10228000D3620168CB6AC269013A43EA0253CB6266
:102290000268936823F4007393600268936890F86F
:1022A000301043EA412393600268936823F480630B
:1022B000936002689368416943EA812393607047A1
:1022C0000268936823F0706393600268936823F058
:1022D00040539360B0E70268536823F4006353608F
:1022E000CAE700BF002301400100000F38B310B55A
:1022F0000446036C43B1236C13F0100F0BD0012084
:10230000002384F83C3010BDFEF716FF0023636401
:1023100084F83C30EFE7236C23F4885323F0020366
:1023200043F0020323642046FFF746FF0020606469
:10233000236C23F0030343F001032364E0E701204F
:102340007047C8B110B50446036C43F00203036440
:102350000268936823F00103936003689B6813F09D
:10236000010F03D0002084F83C0010BDFEF770FF81
:10237000002363642364F5E70120704782B00023E3
:10238000019390F83C30012B00F08980012380F804
:102390003C3003689A6812F0010F13D19A6842F03A
:1023A00001029A60414B1B68414AA2FB03239B0C2C
:1023B00003EB4303019302E0019B013B0193019B6B
:1023C000002BF9D10268936813F0010F5CD0036C05
:1023D00023F4E06323F0010343F480730364536840
:1023E00013F4806F05D0036C23F4405343F48053FF
:1023F0000364036C13F4805F1BD0436C23F006036B
:102400004364002380F83C306FF022031360294BB3
:102410005B6813F01F0F27D10368274A934211D03E
:1024200002F58072934207D0244A934214D00020D0
:1024300033E000234364E4E702F50072526812F0CF
:102440001F0FF1D19A6812F0405F2AD19A6842F0CA
:1024500080429A60002020E002F58072526812F0FB
:10246000100FEFD0002018E00368134A934201D008
:10247000002012E09A6812F0405F14D19A6842F08E
:1024800080429A60002008E0036C43F0100303646C
:10249000436C43F001034364002002B07047022004
:1024A000FBE70020F9E70020F7E700BF0800002065
:1024B00083DE1B4300230140002001400022014035
:1024C00090F83C30012B19D0012380F83C30026891
:1024D000936823F00103936003689B6813F0010F76
:1024E00007D1036C23F4885323F0010343F0010365
:1024F0000364002380F83C30184670470220704780
:1025000070B504460D4603689A6812F4806F03D0D4
:102510009B6813F4807F19D101F0FCFA064623680A
:102520001A6812F0020F20D1B5F1FF3FF7D0B5B90C
:1025300023681B6813F0020FF1D1236C43F00403EE
:102540002364002384F83C30032032E0036C43F022
:1025500020030364002380F83C30012029E001F0CF
:10256000D9FA801BA842DAD9E2E76FF012021A60AA
:10257000236C43F40073236423689A6812F0405F6D
:1025800016D1207EB0B9DA6A12F4700F03D09B68BE
:1025900013F4806F0DD1236C23F480732364236CB8
:1025A00013F4805F05D1236C43F00103236400E042
:1025B000002070BD0020FCE710B582B01346002259
:1025C000019290F83C20012A00F0A78004460122E5
:1025D00080F83C200268906810F0010F13D19068D9
:1025E00040F0010090604E4A10684E4AA2FB002065
:1025F000800C00EB4000019002E00198013801904E
:1026000001980028F9D12268906810F4807F03D0E7
:10261000906820F4807090602268906810F0010F3C
:1026200070D0206C20F4E06020F0010040F4807055
:102630002064526812F4806F05D0226C22F440525C
:1026400042F480522264226C12F4805F3BD0626CB0
:1026500022F006026264002284F83C20A26B324819
:10266000D063A26B31481064A26B3148D0642268F9
:102670006FF0220010602068426842F08062426081
:102680002068826842F48072826020680A4600F105
:102690004C01A06B01F052F8264B5B6813F01F0F42
:1026A00023D12368244A934216D002F580729342C4
:1026B0000CD0224A93422ED102F58072526812F059
:1026C000100F28D108E000226264C4E702F500720E
:1026D000526812F01F0FECD19A6812F0405F1AD1C5
:1026E0009A6842F080429A6015E02368124A934249
:1026F00011D19A6812F0405F0DD19A6842F0804281
:102700009A6008E0236C43F010032364636C43F089
:1027100001036364002002B010BD0220FBE700BF8C
:102720000800002083DE1B4329290008C327000876
:10273000132900080023014000200140002201402D
:1027400090F83C30012B35D010B50446012380F8B9
:102750003C300268936823F00103936003689A6831
:1027600012F0010F21D19A6822F480729A60806B76
:1027700090F83530DBB2022B0ED00020226853686F
:1027800023F080635360236C23F4885323F0010308
:1027900043F00103236409E001F005F80028EDD0BF
:1027A000236C43F040032364E8E70020002384F80F
:1027B0003C3010BD022070470368D86C70477047EA
:1027C000704708B5806BFFF7FBFF08BD7047704787
:1027D00070B5044603681E685D6816F0020F2FD0BE
:1027E00005F0200262B3026C12F0100F03D1026CEC
:1027F00042F4007202649A6812F0405F19D1227E9E
:10280000BAB9DA6A12F4700F03D09A6812F4806FC2
:102810000FD15A6822F020025A60236C23F480738F
:102820002364236C13F4805F03D1236C43F0010312
:1028300023642046FFF7C3FF23686FF012021A607B
:1028400005F0800316F0040F37D0002B35D0236C31
:1028500013F0100F03D1236C43F400532364236857
:102860009A6812F4401F21D19A6B12F4401F03D0D2
:102870009A6812F4806F19D15A6812F4806F15D1DA
:102880009A6812F0405F11D1227E7AB95A6822F01C
:1028900080025A60236C23F480532364236C13F466
:1028A000807F03D1236C43F001032364204600F0B2
:1028B00041F923686FF00C021A6005F0400316F02E
:1028C000010F05D023B123681B6813F0010F06D157
:1028D00005F0806516F0200F00D065B970BD236C3F
:1028E00043F4803323642046FFF770FF23686FF0C2
:1028F00001021A60ECE7636C43F00203636423682F
:102900006FF020051D602046FFF761FF23681D6002
:10291000E4E708B5806B40230364436C43F0040391
:102920004364FFF754FF08BD08B50346806B026C93
:1029300012F0500F25D1036C43F400730364036855
:102940009A6812F0405F19D1027EBAB9DA6A12F4BD
:10295000700F03D09A6812F4806F0FD15A6822F07A
:1029600020025A60036C23F480730364036C13F435
:10297000805F03D1036C43F001030364FFF71FFF83
:1029800008BD026C12F0100F04D1826BD26C184695
:102990009047F5E7FFF71BFFF2E7000030B482B085
:1029A0000023019390F83C30012B00F0BB80012301
:1029B00080F83C300B68092B41D90468E2689BB26F
:1029C00003EB43031E3B4FF0070C0CFA03F322EA20
:1029D0000303E3600468E2680B8803EB43031E3BD8
:1029E0008D6805FA03F31343E3604B68062B3DD86B
:1029F0000468626B03EB8303053B4FF01F0C0CFA7A
:102A000003F322EA030363630468626B4B6803EB1E
:102A10008303053BB1F800C00CFA03F3134363636F
:102A20000268414B9A4251D002683F4B9A4256D0BD
:102A3000002380F83C30184602B030BC7047046870
:102A400022699BB203EB43034FF0070C0CFA03F32C
:102A500022EA03032361046822690B8803EB430322
:102A60008D6805FA03F313432361BEE70C2B16D8D8
:102A700005682A6B03EB8303233B1F2404FA03F34B
:102A800022EA03032B6305682A6B4B6803EB83037D
:102A9000233B0C8804FA03F313432B63C0E7056858
:102AA000EA6A03EB8303413B1F2404FA03F322EA9F
:102AB0000303EB620568EA6A4B6803EB8303413B5F
:102AC0000C8804FA03F31343EB62A9E70B68122B9B
:102AD000AAD1164A536843F480035360A4E70B68F5
:102AE000103B012BA4D8114A536843F400035360F0
:102AF0000B68102B9CD10E4B1B6802F1467202F53D
:102B00002E3202F28332A2FB03239B0C03EB8303DE
:102B10005B00019302E0019B013B0193019B002BB1
:102B2000F9D185E7022087E700200140002301401A
:102B30000800002070470000002800F0E08170B518
:102B400082B00446036813F0010F3BD09F4B9B6893
:102B500003F00C03042B2CD09C4B9B6803F00C035C
:102B6000082B21D06368B3F5803F4FD0B3F5A02F79
:102B700052D0964B1A6822F480321A601A6822F4F6
:102B800080221A606368002B50D000F0C3FF054616
:102B90008E4B1B6813F4003F14D100F0BBFF401BA9
:102BA0006428F5D90320B1E1884B5B6813F4800FEA
:102BB000D8D0864B1B6813F4003F03D06368002B0A
:102BC00000F09F81236813F0020F54D07F4B9B6865
:102BD00013F00C0F3ED07D4B9B6803F00C03082BC9
:102BE00033D0E368002B68D0794B01221A6000F0E3
:102BF00091FF0546754B1B6813F0020F54D100F08E
:102C000089FF401B0228F5D903207FE16F4A136832
:102C100043F480331360B5E76C4B1A6842F48022AA
:102C20001A601A6842F480321A60ABE700F072FF53
:102C30000546664B1B6813F4003FC3D000F06AFFE3
:102C4000401B6428F5D9032060E1604B5B6813F4F6
:102C5000800FC6D15D4B1B6813F0020F03D0E368F1
:102C6000012B40F05081594A136823F0F803216981
:102C700043EAC1031360236813F0080F42D063696D
:102C80006BB3534B0122C3F8802E00F043FF05467F
:102C90004E4B5B6F13F0020F34D100F03BFF401B33
:102CA0000228F5D9032031E1484A136823F0F803DC
:102CB000216943EAC1031360DDE7454B00221A6036
:102CC00000F028FF0546414B1B6813F0020FD2D0DD
:102CD00000F020FF401B0228F5D9032016E13C4BF1
:102CE0000022C3F8802E00F015FF0546374B5B6FBE
:102CF00013F0020F06D000F00DFF401B0228F5D99B
:102D0000032003E1236813F0040F77D02F4B1B6CD3
:102D100013F0805F33D1002301932C4B1A6C42F0E7
:102D200080521A641B6C03F080530193019B0125B0
:102D3000284B1B6813F4807F23D0A368012B34D069
:102D4000052B38D0214B1A6F22F001021A671A6F37
:102D500022F004021A67A368002B3DD000F0DAFECF
:102D600006461A4B1B6F13F0020F46D100F0D2FE3D
:102D7000801B41F288339842F3D90320C6E0002536
:102D8000D6E7144A136843F48073136000F0C2FE60
:102D90000646104B1B6813F4807FCED100F0BAFEBC
:102DA000801B0228F5D90320B0E0084A136F43F0D6
:102DB00001031367CFE7054B1A6F42F004021A674D
:102DC0001A6F42F001021A67C5E700BF00380240DF
:102DD000000047420070004000F09CFE0646524B47
:102DE0001B6F13F0020F08D000F094FE801B41F21D
:102DF00088339842F3D9032088E0EDB9A369002B0A
:102E000000F08380484A926802F00C02082A51D0F0
:102E1000022B17D0454B00221A6600F07BFE0446B9
:102E2000414B1B6813F0007F42D000F073FE001B83
:102E30000228F5D9032069E03B4A136C23F0805344
:102E40001364DBE7394B00221A6600F063FE054687
:102E5000354B1B6813F0007F06D000F05BFE401B73
:102E60000228F5D9032051E0E369226A1343626A1C
:102E700043EA8213A26A5208013A43EA0243E26A31
:102E800043EA0263284A5360284B01221A6600F085
:102E900041FE0446244B1B6813F0007F06D100F06E
:102EA00039FE001B0228F5D903202FE000202DE079
:102EB00000202BE0012B2BD01B4B5B6803F480011F
:102EC000E269914226D103F03F02216A8A4223D16E
:102ED000616A47F6C0721A40B2EB811F1ED103F43B
:102EE0004031A26A5208013AB1EB024F18D103F007
:102EF0007063E26AB3EB026F14D1002006E0012098
:102F00007047012002E0012000E0002002B070BD07
:102F10000120FBE70120F9E70120F7E70120F5E7B1
:102F20000120F3E70120F1E70038024000004742AA
:102F300008B5254B9B6803F00C03042B3FD0082BEE
:102F40003FD1214B5A6802F03F025B6813F4800FB7
:102F500012D01D4B5968C1F388111C480023A1FBF6
:102F60000001FDF773FD184B5B68C3F301430133A8
:102F70005B00B0FBF3F025E0134B5968C1F3881CEC
:102F80004FEA4C11B1EB0C006EEB0E0E4FEA8E13B4
:102F900043EA90638101091A63EB0E03DB0043EA05
:102FA0005173C90011EB0C0C43F10003990200238B
:102FB0004FEA8C2041EA9C51FDF748FDD3E70348D6
:102FC00000E0034808BD00BF00380240001BB70006
:102FD0000024F400002800F09B8070B50D460446E4
:102FE0004F4B1B6803F007038B4208D2CBB24C4A0D
:102FF0001370136803F007038B4240F08B80236843
:1030000013F0020F17D013F0040F04D0454A936851
:1030100043F4E0539360236813F0080F04D0414A4F
:10302000936843F4604393603E4A936823F0F0034F
:10303000A1680B439360236813F0010F32D06368DB
:10304000012B21D09A1E012A25D9364A126812F086
:10305000020F61D033498A6822F0030213438B6068
:1030600000F058FD06462F4B9B6803F00C03626886
:10307000B3EB820F16D000F04DFD801B41F2883378
:103080009842F0D9032042E0264A126812F4003F29
:10309000E0D101203BE0234A126812F0007FD9D131
:1030A000012034E01E4B1B6803F00703AB4207D935
:1030B000EAB21B4B1A701B6803F00703AB422DD119
:1030C000236813F0040F06D0164A936823F4E053E4
:1030D000E1680B439360236813F0080F07D0114A8F
:1030E000936823F46043216943EAC1039360FFF7C7
:1030F0001FFF0C4B9B68C3F303130B4AD35CD840F0
:103100000A4B18600A4B1868FEF776FB002070BD6A
:10311000012070470120FAE70120F8E70120F6E7D7
:10312000003C024000380240A4940008080000203F
:1031300004000020014B1868704700BF0800002001
:1031400008B5FFF7F7FF044B9B68C3F38223034ADC
:10315000D35CD84008BD00BF00380240B4940008DA
:1031600008B5FFF7E7FF044B9B68C3F34233034AFC
:10317000D35CD84008BD00BF00380240B4940008BA
:103180000F2303600B4B9A6802F0030242609A68B7
:1031900002F0F00282609A6802F4E052C2609B681A
:1031A000DB0803F4E0530361034B1B6803F00703E0
:1031B0000B60704700380240003C024000230F2B98
:1031C00000F2E48070B582B060E085685E000324A0
:1031D000B44025EA0405CC68B4402C4384604568BB
:1031E00025EA02054C68C4F300129A402A43426063
:1031F0005AE0DC08083450F8246003F00702950018
:103200000F22AA4026EA020E0A69AA4042EA0E02EA
:1032100040F824205CE0072200E0002202FA0EF2CF
:103220002A4302345A4D45F824205A4A94686FEADA
:103230000C0224EA0C054E6816F4801F01D04CEAFB
:103240000405544CA560E46802EA04054E6816F4CF
:10325000001F01D04CEA04054E4CE560646802EAA8
:1032600004054E6816F4003F01D04CEA0405494CB1
:103270006560246822404D6815F4803F01D04CEA17
:103280000402444C226001330F2B7DD801229A4066
:103290000C6804EA020C32EA0404F4D14C6804F02D
:1032A0000304013C012C90D94A6802F00302032A6E
:1032B00009D0C4685D000322AA4024EA02048A6897
:1032C000AA402243C2604A6802F00302022A90D058
:1032D00004684FEA430E032202FA0EF224EA0204C3
:1032E0004A6802F0030202FA0EF2224302604A68C0
:1032F00012F4403FC7D000220192274A546C44F494
:1033000080445464526C02F480420192019A9C08F9
:10331000A51C1F4A52F8255003F003024FEA820E03
:103320000F2202FA0EF225EA02051C4A90423FF4EF
:1033300074AF02F5806290421AD002F5806290422A
:1033400018D002F58062904216D002F58062904259
:1033500014D002F58062904212D002F58062904251
:1033600010D002F5806290423FF455AF082255E735
:10337000012253E7022251E703224FE704224DE7DF
:1033800005224BE7062249E702B070BD704700BF37
:1033900000380140003C014000380240000002407B
:1033A00000230F2B00F28F80F0B52DE0072500E001
:1033B000002505FA0CFCA44569D004685D004FF0B7
:1033C000030C0CFA05FC24EA0C0404604FEAD30E4B
:1033D0000EF1080E50F82E4003F00705AE000F2541
:1033E000B54024EA050440F82E40C46824EA0C04E1
:1033F000C460446824EA02024260826822EA0C0245
:10340000826001330F2B5DD801229A4002EA010647
:1034100032EA0104F5D14FEA930E0EF102052A4C6F
:1034200054F8254003F0030C4FEA8C0C0F2505FAE5
:103430000CF73C40254DA842BAD005F58065A8425E
:1034400019D005F58065A84217D005F58065A8421A
:1034500015D005F58065A84213D005F58065A84212
:1034600011D005F58065A8420FD005F58065A8420A
:103470009CD008259DE701259BE7022599E70325B8
:1034800097E7042595E7052593E7062591E7104C76
:10349000256825EA06052560656825EA0605656054
:1034A000E56825EA0605E560A56825EA0606A66042
:1034B000054E0EF1020456F8245025EA070546F899
:1034C00024507AE7F0BD7047003801400000024008
:1034D000003C01400369194201D0012070470020DF
:1034E00070470AB18161704709048161704700002B
:1034F00008B5054B5B69034200D108BD024B58611A
:10350000FEF750F9F9E700BF003C014030B4056810
:103510002C6824F480242C60046863608368402B4A
:1035200005D0036899600368DA6030BC70470368AF
:103530009A600368D960F8E710B40368D9B210390B
:103540000C4AA2FB014212090B4CA25CC2655F2926
:1035500009D923F47F7323F0030304338365806D5B
:103560005DF8044B704723F47F7323F003038365F6
:10357000F5E700BFABAAAAAA9C940008836A8269F7
:1035800092B9012B0AD0022B02D00BB10020704758
:10359000C36A13F0807F28D100207047C36AB3F15B
:1035A000C07F24D000207047B2F5005F09D0022B05
:1035B00025D9032B25D1C36A13F0807F23D10020A6
:1035C0007047032B03D8DFE803F01404140A00202B
:1035D0007047C36A13F0807F0DD100207047C36A23
:1035E000B3F1C07F09D0002070470120704701204F
:1035F000704701207047012070470120704701206B
:1036000070470020704701207047000070B50446E5
:1036100000F080FA002C5BD00546022384F8353098
:10362000002384F834302268136823F00103136008
:1036300023681A6812F0010F0AD000F06BFA431BDE
:10364000052BF5D920236365032084F8350070BD70
:103650001A68204810406168A2680A43E1680A437A
:1036600021690A4361690A43A1690A43E1690A437E
:10367000216A0A430243616A04291ED01A6026683F
:10368000756925F00705636A1D43042B07D1A36AFA
:103690001D43E36A1BB12046FFF770FF90B97561C7
:1036A0002046FFF749FFE26D3F23934083600020EF
:1036B0006065012384F83530C9E7E16A206B014376
:1036C0000A43DBE740236365012084F83500BEE749
:1036D0000120BCE73F8010F000282DD038B505460A
:1036E00090F83500C0B2022825D02A68136823F06C
:1036F000010313602B6800241C602B685C602B683E
:103700009C602B68DC602B681C612B6821225A614D
:103710002846FFF711FFEC632C646C64AC64EC6426
:103720002C65EA6D3F23934083606C6585F83540D6
:1037300085F83440204638BD0120704738B504462E
:10374000856D90F8340001282BD0012084F83400D6
:1037500094F83500C0B2012804D0002384F8343036
:10376000022038BD022084F8350000206065204624
:10377000FFF7CCFEE26D3F239340AB6022681368F5
:1037800043F016031360236C23B12268136843F0DF
:10379000080313602268136843F0010313600020DC
:1037A000DFE70220DDE770B50446866D00F0B2F970
:1037B00094F83530DBB2022B06D0802363650023FA
:1037C00084F83430012070BD05462268136823F068
:1037D000160313602268536923F080035361236C3E
:1037E000E3B12268136823F00803136022681368AA
:1037F00023F00103136023681B6813F0010F11D03D
:1038000000F088F9431B052BF5D9202363650320BD
:1038100084F83500002384F83430D4E7A36C002BFF
:10382000DFD1E3E7E26D3F239340B360012384F8E7
:103830003530002084F83400C5E70000F0B583B0CF
:10384000044600230193724B1D68724BA3FB0535A0
:10385000AD0A876D3E68C26D08239340334210D095
:1038600003681A6812F0040F0BD01A6822F00402E1
:103870001A60C26D08239340BB60436D43F001039F
:103880004365E26D01239340334209D022685269B7
:1038900012F0800F04D0BB60636D43F002036365D8
:1038A000E26D04239340334209D02268126812F07B
:1038B000020F04D0BB60636D43F004036365E26DE7
:1038C00010239340334224D02268126812F0080F6C
:1038D0001FD0BB6023681A6812F4802F0DD01B68BC
:1038E00013F4002F04D1236C9BB12046984710E0BD
:1038F000A36C73B1204698470BE01A6812F4807FDE
:1039000003D11A6822F008021A60236C0BB120461A
:103910009847E26D20239340334255D022681268C5
:1039200012F0100F50D0BB6094F83530DBB2052B8D
:103930000ED023681A6812F4802F33D01B6813F45A
:10394000002F2AD1636C002B3ED0204698473BE0E5
:103950002268136823F0160313602268536923F06A
:1039600080035361236CA3B12268136823F008031A
:103970001360E26D3F239340BB60012384F8353030
:10398000002384F83430236D002B3FD02046984725
:103990003CE0A36C002BE7D1EBE7E36BA3B120463F
:1039A000984711E01A6812F4807F09D11A6822F052
:1039B00010021A60012384F83530002384F8343073
:1039C000E36B0BB120469847636DFBB1636D13F059
:1039D000010F17D0052384F835302268136823F0CF
:1039E00001031360019B01330193AB4204D82368A8
:1039F0001B6813F0010FF5D1012384F83530002343
:103A000084F83430E36C0BB12046984703B0F0BD26
:103A100008000020B5814E1B074AD36823F4E063F9
:103A20001B041B0C000200F4E060034343F0BF637F
:103A300043F40033D360704700ED00E000B5194B4C
:103A4000DB68C3F30223C3F1070CBCF1040F28BFEA
:103A50004FF0040C03F1040EBEF1060F18D9033B1E
:103A60004FF0FF3E0EFA0CFC21EA0C0199400EFAD1
:103A700003F322EA0303194300280BDB0901C9B24F
:103A800000F1604000F5614080F800135DF804FB30
:103A90000023E5E700F00F000901C9B2024B1954F9
:103AA000F4E700BF00ED00E014ED00E0002807DBC4
:103AB00000F01F02400901239340024A42F82030DF
:103AC000704700BF00E100E008B50B4B1A6842F4F4
:103AD00000721A601A6842F480621A601A6842F42E
:103AE00080721A600320FFF797FF0F20FDF784FE16
:103AF000FDF760FE002008BD003C0240034A11684B
:103B0000034B1B780B441360704700BFD8030020A1
:103B100000000020014B1868704700BFD803002048
:103B200003685A6912F4806F01D1002070476FF466
:103B300080625A6100230363202280F83D2080F8D0
:103B40003E30026C42F00402026480F83C300120F6
:103B500070472DE9F04106460C46174698463BE073
:103B6000FFF7D8FF069BC01A404502D8B8F1000FF6
:103B700032D1012D18D033689B6924EA03039BB22C
:103B8000B3FA83F35B099F4226D1002333632022DB
:103B900086F83D2086F83E30326C42F020023264D6
:103BA00086F83C30012027E033685B6924EA030390
:103BB0009BB2B3FA83F35B09E5E733685B6924EAF8
:103BC000030C1FFA8CFCBCFA8CFC4FEA5C1C6745AA
:103BD00011D1B8F1FF3FC3D1C4F30745012DECD09B
:103BE00033689B6924EA030C1FFA8CFCBCFA8CFC3A
:103BF0004FEA5C1CEBE70020BDE8F0812DE9F843BB
:103C000005460E469046994653E01A6842F4007203
:103C10001A602B686FF480625A6100232B632022A4
:103C200085F83D2085F83E302A6C42F004022A6473
:103C300085F83C3001204AE0FFF76CFFA0EB09005B
:103C4000404502D8B8F1000F33D1012F17D02B68AF
:103C50009B6926EA03039BB2003B18BF012343B3D1
:103C600000232B63202285F83D2085F83E302A6C06
:103C700042F020022A6485F83C30012027E02B68BE
:103C80005B6926EA03039BB2003B18BF0123E6E70A
:103C90002B689C6926EA0404A4B2003C18BF0124E6
:103CA000A4B12B685A6912F4806FAED1B8F1FF3F0E
:103CB000C2D1C6F30747012FEAD12B685C6926EA17
:103CC0000404A4B2003C18BF0124E9E70020BDE8C9
:103CD000F8830000F0B583B004460D4616461F4633
:103CE000C36A082B0DD0012B0BD013F5803F08D0F1
:103CF000036B122B0AD10268136843F480731360BC
:103D000004E02268136843F480731360009733461D
:103D100000224FF001112046FFF71BFF80B92369F5
:103D2000B3F5804F16D1236805F0FE051D613B46B3
:103D3000324613492046FFF761FFF8B903B0F0BDE2
:103D400023681B6813F4807F02D04FF40073236450
:103D50000320F3E7EB11226803F0060343F0F003BE
:103D600013613B46324607492046FFF747FF18B923
:103D70002368EDB21D61DAE70120DFE70120DDE70E
:103D8000020001000800010070B504460D46164609
:103D900023685B6913F0800F21D12046FFF7C0FE36
:103DA000F8B9B5F1FF3FF3D0FFF7B4FE801BA8428E
:103DB00001D8002DECD123685B6913F0800FE7D1A7
:103DC00000232363202284F83D2084F83E30226CB7
:103DD00042F02002226484F83C30012000E0002000
:103DE00070BD0120FCE770B504460D4616462368F9
:103DF0005B6913F0040F21D12046FFF791FEF8B95B
:103E0000B5F1FF3FF3D0FFF785FE801BA84201D834
:103E1000002DECD123685B6913F0040FE7D1002378
:103E20002363202284F83D2084F83E30226C42F047
:103E30002002226484F83C30012000E0002070BDA4
:103E40000120FCE7002800F0CC8070B5044690F813
:103E50003D30002B77D0242384F83D30226813684E
:103E600023F0010313602268136843F400431360D6
:103E70002268136823F400431360FFF761F9626856
:103E80005A4B9A4264D85A4B98428CBF0023012364
:103E9000002B40F0A8805749A1FB00318B0C25680E
:103EA0006A6822F03F0242EA91426A6021680A6A27
:103EB00022F03F0266684D4DAE424FD801331343A6
:103EC0000B622168CA6922F44F4222F0FF02666841
:103ED000464B9E424CD8431E7600B3FBF6F30133AB
:103EE00040F6FC70034278D0C3F30B031343CB615D
:103EF00021680B6823F0C003E269206A0243134380
:103F00000B6021688B6823F4034323F0FF032269CD
:103F1000E068024313438B602168CB6823F0FF0302
:103F20006269A06902431343CB602268136843F0BF
:103F30000103136000202064202384F83D302063B7
:103F400084F83E0070BD80F83C30FDF7E3F982E76D
:103F5000294B98428CBF0023012399E74FF49675B3
:103F600005FB03F3254DA5FB03539B090133A6E78E
:103F7000A368BBB9451E06EB460CB5FBFCF5013545
:103F8000C5F30B05B5FA85F56D0945BBC3B9013815
:103F900006EB4603B0FBF3F30133C3F30B0343F427
:103FA0000043A3E7451E06EB860C0CEB8C0CB5FB1F
:103FB000FCF50135C5F30B05B5FA85F56D09E4E7A8
:103FC000013806EB860303EB8303B0FBF3F3013305
:103FD000C3F30B0343F4404388E7042386E701233C
:103FE00084E7012070470120ACE700BFA0860100F4
:103FF0007F841E0083DE1B43FF083D00D34D62100B
:104000002DE9F04385B004460F46914698460C9E34
:10401000FFF780FD054694F83D00C0B2202804D08B
:104020000227384605B0BDE8F08300951923012228
:104030004F492046FFF78DFD002840F0928094F80C
:104040003C30012B00F08F80012384F83C30236842
:104050001A6812F0010F03D11A6842F001021A60C7
:104060002268136823F400631360212384F83D3031
:10407000102384F83E3000232364C4F82490A4F86D
:104080002A80638D23853B4BE3622B4632463946BB
:104090002046FFF71FFE0746002866D10023039342
:1040A00023685A6903929B690393039B11E0236C75
:1040B000042B01D00127B4E72268136843F400738E
:1040C0001360F7E72A4631462046FFF78CFE0028AA
:1040D0002ED1238D002B36D02A4631462046FFF7BD
:1040E00053FE0028E3D1626A236812781A61606A7D
:1040F000431C6362618D89B2013989B26185238D68
:10410000013B9BB223852268516911F0040FD9D07D
:10411000002BD7D043781361636A01336362638DE8
:104120009BB2013B9BB26385238D013B2385C9E78D
:10413000236C042B01D0012773E72268136843F432
:1041400000731360F7E72268136843F40073136089
:10415000202384F83D30002384F83E3084F83C303E
:104160005FE702275DE702275BE7012759E700BF0A
:10417000020010000000FFFF2DE9F04782B0054665
:10418000884617461E46FFF7C5FC0A9B1B1A03EB21
:104190000609FFF7BFFC82462B4B1B68C3F3CB33EA
:1041A00009FB03F301932B689C6838EA04030CBFF6
:1041B0004FF0010C4FF0000CBC4540D0B6F1FF3F72
:1041C000F1D0FFF7A7FCA0EB0A00484506D2B9F1F1
:1041D000000F03D0019B73BB9946E4E72A6853683C
:1041E00023F0E00353606B68B3F5827F0BD0AB6ABA
:1041F000B3F5005F14D0012385F85130002385F812
:10420000503003201CE0AB68B3F5004F02D0B3F58B
:10421000806FECD12A68136823F040031360E6E74F
:104220002A68136823F4005313602A68136843F460
:1042300000531360DFE7019B013B0193B3E70020CC
:1042400002B0BDE8F08700BF0800002070B584B060
:1042500004460D46164600920B4601220221FFF746
:104260008BFFD0B9174B1B68174AA2FB03235B0DCA
:104270004FF47A7202FB03F303936368B3F5827F12
:1042800011D0039B3BB1039B013B039323689B68C5
:1042900013F0800FF5D104B070BD636D43F02003BF
:1042A00063650320F7E700962B4600228021204615
:1042B000FFF762FF0028EED0636D43F020036365D3
:1042C0000320E8E708000020819F5E1600285AD0EE
:1042D00010B50446436A33B94368B3F5827F05D00D
:1042E0000023C36102E00023036143610023A36252
:1042F00094F85130002B40D0022384F851302268CA
:10430000136823F040031360636803F48273A268A8
:1043100002F404421343E26802F400621343226988
:1043200002F002021343626902F001021343A26920
:1043300002F400721343E26902F038021343226A66
:1043400002F080021343A26A02F400522168134370
:104350000B60638B03F00403626A02F010022168B1
:1043600013434B602268D36923F40063D3610020B8
:104370006065012384F8513010BD84F85030204628
:10438000FDF722F8B8E7012070472DE9F04383B02C
:104390000446894690461D46FFF7BCFB94F85160E1
:1043A000F6B2012E40F0CC800746B9F1000F00F0C4
:1043B000C880B8F1000F00F0C48094F85030012B91
:1043C00000F0C380012384F85030032384F8513077
:1043D00000236365C4F83090A4F83480A4F83680D4
:1043E000A363A387E38763642364A368B3F5004FE3
:1043F0001ED023681A6812F0400F03D11A6842F0E9
:1044000040021A60E368B3F5006F1CD0636813B113
:10441000B8F1010F5FD1226B236812781A73236BF6
:1044200001332363E38E9BB2013B9BB2E38652E0F0
:104430002268136823F0400313602268136843F472
:1044400080431360D5E7636813B1B8F1010F15D14C
:10445000226B23681288DA60236B02332363E38EB6
:104460009BB2013B9BB2E38608E0FFF753FBC01B06
:10447000A84202D3B5F1FF3F15D1A5B1E38E9BB29F
:10448000002B42D023689A6812F0020FEDD0226B05
:104490001288DA60236B02332363E38E9BB2013B05
:1044A0009BB2E386EAE7012384F85130002384F8C5
:1044B0005030032645E0226B12781A73236B0133C8
:1044C0002363B4F836C01FFA8CFC0CF1FF3C1FFAD2
:1044D0008CFCA4F836C0E38E9BB2B3B123689A6813
:1044E00012F0020FE7D1FFF715FBC01BA84202D361
:1044F000B5F1FF3F01D1002DEDD1012384F85130FA
:10450000002384F8503003261BE03A462946204613
:10451000FFF79CFE08B120236365A36833B90193BC
:104520002368DA6801929B680193019B012384F858
:104530005130002384F85030636D13B9002600E039
:104540000226304603B0BDE8F0830226F9E70000FA
:1045500038B504460268136923F44053C1680B431D
:10456000136183680269134342691343C2691A43A2
:104570000168CB6823F4164323F00C031343CB608C
:104580000268536923F4407381690B4353610368E4
:10459000314A934206D002F58062934202D0FEF780
:1045A000CFFD01E0FEF7DCFDE369B3F5004F29D054
:1045B0000021031849411B1841F10001C90041EADB
:1045C0005371DB00181863684FEA83024FEA937354
:1045D00041F10001FCF73AFA204DA5FB00325109E8
:1045E000642303FB11031B013233A5FB03235B0987
:1045F00003F0F00202EB011203F00F0321681344F1
:104600008B6038BD0023021843EB0301121841F1FF
:104610000001C90041EA5271D200101841F10001B5
:10462000626892185B41FCF711FA0C4DA5FB003251
:104630005109642303FB1103DB003233A5FB032381
:104640005B095A0002F4F87202EB011203F007034F
:10465000216813448B60D4E7001001401F85EB51A3
:1046600060B310B5044690F8413013B3242384F8A6
:1046700041302268D36823F40053D3602046FFF70B
:1046800067FF2268136923F490431361226853691A
:1046900023F02A0353612268D36843F40053D360A4
:1046A00000206064202384F8413084F84230606345
:1046B00010BD80F84030FCF7E1FFD7E701207047DC
:1046C000034AD2F8883043F47003C2F88830704748
:1046D00000ED00E000F1080343604FF0FF3282601C
:1046E000C3600361002303607047002303617047C8
:1046F00043684B609A688A605160996008610368FA
:1047000001330360704730B40D68B5F1FF3F11D03D
:1047100000F108031C465B681A68AA42FAD963686C
:104720004B6099608C6061600861036801330360CD
:1047300030BC70470469F2E70369416882688A60A7
:10474000416851605A68824206D0002202611A68AC
:10475000013A1A601868704782685A60F5E70346A4
:10476000406A18B11B6B1868C0F13800704710B56B
:10477000044602F07FF8A26BE36B9A4204D0002457
:1047800002F09AF8204610BD0124F9E710B504465E
:1047900002F070F8A36B23B9012402F08DF82046D3
:1047A00010BD0024F9E770B504461546866B026C0F
:1047B0005AB903681BB100200136A66370BD80683A
:1047C00001F0D8F90023A360F6E76DB9406803F063
:1047D000AFFF226C636813446360A268934219D3ED
:1047E000236863602846E7E7C06803F0A1FF226CF6
:1047F0005142E3689B1AE3602268934202D2A368A5
:104800000B44E360022D01D00020D5E726B1013E24
:104810000020D1E72846CFE70020CDE70346026C11
:104820006AB110B50846D9681144D9609C68A142A4
:1048300001D31968D960D96803F07AFF10BD7047B9
:1048400038B5054602F016F895F8454064B201E027
:10485000013C64B2002C0ADD6B6A43B105F124000F
:1048600001F08CF80028F3D001F01CF9F0E7FF23E9
:1048700085F8453002F020F801F0FCFF95F844403F
:1048800064B201E0013C64B2002C0ADD2B6943B143
:1048900005F1100001F072F80028F3D001F002F9E0
:1048A000F0E7FF2385F8443002F006F838BD38B54C
:1048B000E0B10D46044601F0DDFF2368E26B216C98
:1048C00001FB0230A0600020A0636360013A02FB9C
:1048D0000133E360FF2384F8443084F84530FDB9A8
:1048E000236963B901F0E8FF012038BD4FF05003A0
:1048F00083F31188BFF36F8FBFF34F8FFEE704F18F
:10490000100001F03BF80028ECD04FF0E0234FF00E
:104910008052C3F8042DBFF34F8FBFF36F8FE1E7D1
:1049200004F11000FFF7D6FE04F12400FFF7D2FED9
:10493000D8E738B51D46049C0B4649B92460E063AE
:10494000236401212046FFF7B2FF84F84C5038BDA4
:104950002260F4E740B94FF0500383F31188BFF3AE
:104960006F8FBFF34F8FFEE710B584B01C468446AF
:1049700053B192B189B94FF0500383F31188BFF35B
:104980006F8FBFF34F8FFEE74FF0500383F3118813
:10499000BFF36F8FBFF34F8FFEE76AB150230393CE
:1049A000039B502B13D04FF0500383F31188BFF3B8
:1049B0006F8FBFF34F8FFEE70029EFD04FF050030A
:1049C00083F31188BFF36F8FBFF34F8FFEE7039B15
:1049D000012384F8463000949DF818306046FFF7B4
:1049E000A8FF204604B010BD40B94FF0500383F338
:1049F0001188BFF36F8FBFF34F8FFEE7F0B583B021
:104A00000D461446064601FB00F0503001F00EFE44
:104A1000074650B1002380F846300090234600F14D
:104A2000500229463046FFF784FF384603B0F0BDF8
:104A3000F0B585B0019288B10F461D460446B1B16C
:104A4000022D20D1E36B012B1DD04FF0500383F3D7
:104A50001188BFF36F8FBFF34F8FFEE74FF0500306
:104A600083F31188BFF36F8FBFF34F8FFEE7036CA3
:104A7000002BE5D04FF0500383F31188BFF36F8F05
:104A8000BFF34F8FFEE701F019F8064658B9019BB6
:104A9000002B48D04FF0500383F31188BFF36F8F82
:104AA000BFF34F8FFEE700263DE02A4639462046F9
:104AB000FFF779FE636A7BB948B14FF0E0234FF00E
:104AC0008052C3F8042DBFF34F8FBFF36F8F01F0F7
:104AD000F3FE012005B0F0BD04F1240000F04EFF0C
:104AE0000028F4D04FF0E0234FF08052C3F8042D9B
:104AF000BFF34F8FBFF36F8FE9E701F0DDFE0020BA
:104B0000E8E702A800F080FF012619E0002384F8FE
:104B1000443021E0002384F8453023E02046FFF7AD
:104B20008FFE00F00BFE01F0A5FEA26BE36B9A4234
:104B3000BBD3022DB9D0019B002BDED0002EE0D0DC
:104B400001F0BAFE00F060FD01F094FE94F84420FC
:104B500052B2B2F1FF3FD9D094F8452052B2B2F12F
:104B6000FF3FD7D001F0A8FE01A902A800F058FF2E
:104B7000D8B92046FFF7FBFD0028CFD0019904F1FA
:104B8000100000F0C7FE2046FFF75AFE00F0D6FDE9
:104B90000028C8D14FF0E0234FF08052C3F8042D15
:104BA000BFF34F8FBFF36F8FBDE72046FFF748FE7F
:104BB00000F0C4FD00208DE748B108B500218160F8
:104BC0000160C1600B460A46FFF732FF08BD70471F
:104BD00010B5024600210120FFF706FF0446FFF74B
:104BE000EBFF204610BD10B582B00B4600900022AE
:104BF00011460120FFF7AEFE0446FFF7DDFF204619
:104C000002B010BD38B538B10446856800F050FFD9
:104C100085420AD0002038BD4FF0500383F311883D
:104C2000BFF36F8FBFF34F8FFEE7E368013BE36095
:104C30000BB10120EFE71A4619462046FFF7F8FEB0
:104C40000120E8E72DE9F84390B10F4616461C46CF
:104C50000546B1B1022C20D1EB6B012B1DD04FF0DA
:104C6000500383F31188BFF36F8FBFF34F8FFEE7BD
:104C70004FF0500383F31188BFF36F8FBFF34F8F53
:104C8000FEE7036C002BE5D04FF0500383F311884F
:104C9000BFF36F8FBFF34F8FFEE701F011FFEFF30C
:104CA00011894FF0500383F31188BFF36F8FBFF367
:104CB0004F8FAA6BEB6B9A4206D3022C04D00020D4
:104CC00089F31188BDE8F88395F845804FFA88F894
:104CD000AB6B224639462846FFF765FDB8F1FF3F2A
:104CE00006D008F101035BB285F845300120E7E703
:104CF0006B6A0BB90120E3E705F1240000F03EFEEA
:104D000018B126B101203060DAE70120D8E7012090
:104D1000D6E7F0B585B0019290B10F460446C1B117
:104D200000F0CCFE064600BB019B002B5ED04FF08E
:104D3000500383F31188BFF36F8FBFF34F8FFEE7EC
:104D40004FF0500383F31188BFF36F8FBFF34F8F82
:104D5000FEE7036C002BE3D04FF0500383F3118880
:104D6000BFF36F8FBFF34F8FFEE700263EE039465B
:104D70002046FFF753FD013DA563236923B901F0E8
:104D80009BFD012005B0F0BD04F1100000F0F6FD20
:104D90000028F4D04FF0E0234FF08052C3F8042DE8
:104DA000BFF34F8FBFF36F8FE9E701F085FD002060
:104DB000E8E702A800F028FE012621E0002384F89D
:104DC000443029E0002384F845302BE02046FFF7EB
:104DD00037FD00F0B3FC09E02046FFF731FD00F09D
:104DE000ADFC2046FFF7D2FC00283FD101F042FD88
:104DF000A56B002DBBD1019B002BD6D0002ED8D0A7
:104E000001F05AFD00F000FC01F034FD94F844304C
:104E10005BB2B3F1FF3FD1D094F845305BB2B3F150
:104E2000FF3FCFD001F048FD01A902A800F0F8FD36
:104E30000028D1D12046FFF7A9FC0028C6D001994F
:104E400004F1240000F066FD2046FFF7F9FC00F0B5
:104E500075FC0028CAD14FF0E0234FF08052C3F810
:104E6000042DBFF34F8FBFF36F8FBFE7002089E79B
:104E700070B584B0019158B10446036C8BB14FF00A
:104E8000500383F31188BFF36F8FBFF34F8FFEE79B
:104E90004FF0500383F31188BFF36F8FBFF34F8F31
:104EA000FEE700F00BFE054650B9019B5BB14FF0E9
:104EB000500383F31188BFF36F8FBFF34F8FFEE76B
:104EC0000026354655E0064653E0013BA3632368C0
:104ED0003BB123694BB901F0EFFC0126304604B029
:104EE00070BD00F0DFFEA060F3E704F1100000F0F9
:104EF00045FD0028EFD04FF0E0234FF08052C3F87B
:104F0000042DBFF34F8FBFF36F8FE4E746B14FF02F
:104F1000500383F31188BFF36F8FBFF34F8FFEE70A
:104F200001F0CAFCDAE702A800F06EFD01252AE0D4
:104F3000002384F8443032E0002384F8453034E024
:104F400001F098FCA06800F0C9FD064601F0B4FC31
:104F50003BE02046FFF774FC00F0F0FB09E0204640
:104F6000FFF76EFC00F0EAFB2046FFF70FFC00287D
:104F700042D101F07FFCA36B002BA6D1019B002B3B
:104F8000C4D0002DCFD001F097FC00F03DFB01F024
:104F900071FC94F844305BB2B3F1FF3FC8D094F891
:104FA00045305BB2B3F1FF3FC6D001F085FC01A9EB
:104FB00002A800F035FD0028D1D12046FFF7E6FB1E
:104FC0000028C6D02368002BBAD0019904F1240030
:104FD00000F0A0FC2046FFF733FC00F0AFFB0028F8
:104FE000C7D14FF0E0234FF08052C3F8042DBFF338
:104FF0004F8FBFF36F8FBCE70EB900266EE701F04D
:1050000039FC2046FFF7ABFB0146A06800F0FAFD33
:1050100001F052FCF1E780B170B50C460546866898
:1050200000F046FD864211D021462846FFF720FFBA
:1050300080B1EB680133EB600CE04FF0500383F379
:105040001188BFF36F8FBFF34F8FFEE7EB6801331B
:10505000EB60012070BD2DE9F843B0B10D46164656
:105060000446D9B101F02CFDEFF311884FF0500345
:1050700083F31188BFF36F8FBFF34F8FA76BCFB947
:10508000002088F31188BDE8F8834FF0500383F3C4
:105090001188BFF36F8FBFF34F8FFEE7036C002BB8
:1050A000E0D04FF0500383F31188BFF36F8FBFF34D
:1050B0004F8FFEE794F844904FFA89F9294620462D
:1050C000FFF7ACFB013FA763B9F1FF3F06D009F141
:1050D00001035BB284F844300120D2E723690BB9A5
:1050E0000120CEE704F1100000F048FC18B126B111
:1050F00001203060C5E70120C3E70120C1E70000BF
:105100000023072B0CD8074A52F833200AB1013389
:10511000F7E7044A42F8331002EBC30358607047C4
:10512000704700BFDC03002070B504460D461646EC
:1051300001F0A0FB94F844305BB2B3F1FF3F0DD017
:1051400094F845305BB2B3F1FF3F0BD001F0B4FBF4
:10515000A36B5BB12046FFF773FB70BD002384F89F
:105160004430EDE7002384F84530EFE73246294626
:1051700004F1240000F0E6FBECE70000084B1B689C
:105180001B6823B9074B4FF0FF321A607047044B7E
:105190001B68DB68DB685A68024B1A60704700BF07
:1051A00020040020C80800202DE9F04780460D4665
:1051B00017469946089EDDF824A00A9C9200A52176
:1051C000206B03F0C3FA236B07F18042013A03EB33
:1051D000820727F00707B5B34FF0000CBCF10F0FA3
:1051E0000BD815F80C2004EB0C0383F8342015F8C9
:1051F0000C3013B10CF1010CF0E7002384F84330BC
:10520000372E00D93726E662E66400252565201D85
:10521000FFF76BFA04F11800FFF767FA2461C6F193
:105220003806A6616462656584F858504A4641466E
:10523000384601F0F5FA2060BAF1000F01D0CAF843
:105240000040BDE8F087002384F83430D8E7000040
:1052500038B5002407E004EB840293000E4818449C
:10526000FFF738FA0134372CF5D90C4D2846FFF7F3
:1052700031FA0B4C2046FFF72DFA0A48FFF72AFABD
:105280000948FFF727FA0948FFF724FA084B1D6081
:10529000084B1C6038BD00BF280400209C0800207B
:1052A000B0080020D408002000090020EC080020ED
:1052B000200400202404002010B5044601F0DAFA8E
:1052C000224A136801331360214B1B685BB1214BE9
:1052D0001B686BB91E4B1B68DA6AE36A9A4207D8EF
:1052E0001B4B1C6004E01A4B1C601368012B29D077
:1052F000194A1368013313606364E06A174B1B6833
:10530000984201D9154B186000EB8000211D144B09
:1053100003EB8000FFF7ECF901F0CEFA0D4B1B68B0
:105320007BB10B4B1B68DA6AE36A9A4209D24FF0F1
:10533000E0234FF08052C3F8042DBFF34F8FBFF32B
:105340006F8F10BDFFF784FFD2E700BF88080020F1
:105350001C040020E8080020940800209808002081
:105360002804002010B5044690F8593063B1012B91
:1053700011D0022B0ED04FF0500383F31188BFF3EE
:105380006F8FBFF34F8FFEE7006B01F0CDF9204622
:1053900001F0CAF910BD01F0C7F9FBE70F4B1B681C
:1053A000D3B110B501F066FA0D4BDB68DC68201D47
:1053B000FFF7C2F90B4A1368013B1360074A1368F1
:1053C000013B136001F078FA2046FFF7CBFF034B57
:1053D0001B68002BE6D110BD704700BF8C08002071
:1053E000000900208808002008B5FFF7D7FF074B09
:1053F0001B68012BF9D94FF0E0234FF08052C3F81E
:10540000042DBFF34F8FBFF36F8FEEE7280400200A
:1054100070B504460D46174B1E68174B18680430CC
:10542000FFF78AF9B4F1FF3F0DD03444124B1B68EB
:105430005C60A64210D9114B18680F4B19680431F3
:10544000FFF761F970BD002DEFD00B4B19680431E7
:105450000B48FFF74DF9F5E70A4B1868064B19683A
:105460000431FFF750F9084B1B68A342EAD9064BF9
:105470001C60E7E7140900201C040020240400201D
:10548000EC08002020040020C808002030B587B0B8
:105490000B9C7CB10C9DB5B15C250495049D5C2DE5
:1054A0001AD04FF0500383F31188BFF36F8FBFF30F
:1054B0004F8FFEE74FF0500383F31188BFF36F8FD8
:1054C000BFF34F8FFEE74FF0500383F31188BFF314
:1054D0006F8FBFF34F8FFEE7049D0C9D2C6302245A
:1054E00085F8594000240394029505AC01940A9C68
:1054F0000094FFF759FE0C98FFF7DEFE059807B001
:1055000030BD2DE9F04385B00746884614461E4657
:10551000900001F08BF800B381465C2001F086F822
:105520000546B0B1C0F83090E5B1002385F8593098
:10553000039302950D9B01930C9B009333462246E7
:1055400041463846FFF730FE2846FFF7B5FE0120FA
:1055500005E0484601F0E8F8E6E74FF0FF3005B017
:10556000BDE8F0834FF0FF30F9E7000010B588B0D8
:1055700000240594069407AA06A905A800F0DAFFFE
:10558000059B0293069B019300942346079A1849B2
:105590001848FFF77BFF184B186040B100F0FCFB88
:1055A000012806D0B0F1FF3F18D008B010BD002090
:1055B000F6E74FF0500383F31188BFF36F8FBFF30B
:1055C0004F8F0E4B4FF0FF321A600D4B01221A60C5
:1055D0000C4B00221A6001F0E7F9E6E74FF05003A8
:1055E00083F31188BFF36F8FBFF34F8FFEE700BFC8
:1055F000BC940008E9530008C4080020C808002033
:10560000E808002014090020024A136801331360DF
:10561000704700BF90080020014B1868704700BF1A
:1056200014090020F8B53A4B1B68002B69D1394B9F
:105630001D6801351D60C5B9374B1B681B6843B138
:105640004FF0500383F31188BFF36F8FBFF34F8F79
:10565000FEE7314A1168314B186810601960304A12
:10566000136801331360FFF789FD2E4B1B68AB42B3
:105670003DD900272C4B1B68DB6A03EB83039A00A0
:105680002A4B9B58012B00D90127294B1B68002B63
:105690003CD001273AE001271F4B1B681B6843B32E
:1056A0001D4B1B68DB68DC6863689D4226D3261DA2
:1056B0003046FFF741F8A36A1BB104F11800FFF769
:1056C0003BF8E36A1B4A1268934201D9194A1360F6
:1056D00003EB83039A00314614481044FFF708F89F
:1056E000E26A114B1B68DB6A9A42D4D2D4E70027E6
:1056F000D2E70C4B4FF0FF321A60BBE7094A136048
:10570000B8E70D4A13680133136000273846F8BD27
:105710009008002014090020200400202404002008
:10572000CC080020C80800201C0400202804002009
:105730001809002098080020D008002038B5354B03
:105740001B6843B94FF0500383F31188BFF36F8F89
:10575000BFF34F8FFEE701F08DF82E4B1A68013A28
:105760001A601B68002B4FD12B4B1B680BB9002410
:105770004BE00024294B1B681BB3284BDB68DC681B
:1057800004F11800FEF7D8FF251D2846FEF7D4FFC8
:10579000E06A234B1B68984201D9214B186000EB4B
:1057A000800029461F4B03EB8000FEF7A1FFE26A51
:1057B0001D4B1B68DB6A9A42DCD31C4B01221A602A
:1057C000D8E70CB1FFF7DAFC194B1C6884B9174B0A
:1057D0001C68D4B14FF0E0234FF08052C3F8042D81
:1057E000BFF34F8FBFF36F8F01240EE0013C07D052
:1057F000FFF718FF0028F9D00C4B01221A60F5E7DB
:105800000B4B00221A60E2E7002401F055F8204615
:1058100038BD00BF9008002088080020D408002070
:1058200098080020280400201C04002018090020EB
:10583000D008002010B5A8B10446104B1B6843B136
:105840004FF0500383F31188BFF36F8FBFF34F8F77
:10585000FEE7FFF7D9FE00212046FFF7D9FDFFF74D
:105860006DFF48B94FF0E0234FF08052C3F8042D8C
:10587000BFF34F8FBFF36F8F10BD00BF90080020A4
:105880001F4B1B681BB11F4B01221A6070471D4B39
:1058900000221A601C4B1B6803EB83018A001B4922
:1058A0008A585AB90BB1013BF6E74FF0500383F326
:1058B0001188BFF36F8FBFF34F8FFEE703EB8300B9
:1058C00082000A4450684068506003EB830C4FEA42
:1058D0008C020832114488420BD003EB8302910002
:1058E0000A4A0A445268D168094A1160064A13609C
:1058F0007047406862469100044A0A445060ECE7F1
:105900009008002018090020980800202804002092
:105910001C04002058B110B50C46094A1168183112
:10592000FEF7F1FE01212046FFF772FD10BD4FF09A
:10593000500383F31188BFF36F8FBFF34F8FFEE7E0
:105940001C04002038B570B10D4614460A4A11688F
:105950001831FEF7CDFE0CB14FF0FF352146284639
:10596000FFF756FD38BD4FF0500383F31188BFF3A6
:105970006F8FBFF34F8FFEE71C04002038B5C3685C
:10598000DC6824B304F118052846FEF7D5FE184B51
:105990001B682BBB251D2846FEF7CEFEE06A154B83
:1059A0001B68984201D9134B186000EB8000294610
:1059B000114B03EB8000FEF79BFEE26A0F4B1B6866
:1059C000DB6A9A4211D901200D4B186038BD4FF0A7
:1059D000500383F31188BFF36F8FBFF34F8FFEE740
:1059E00029460848FEF784FEE7E70020EEE700BFFF
:1059F0009008002098080020280400201C040020A3
:105A000018090020D4080020034B1B680360034BD7
:105A10001B684360704700BFCC08002014090020B9
:105A2000F8B5C8B10C460546F9B100F023FF1B4B91
:105A300019686B68C81A2268B2F1FF3F26D0184E69
:105A400036682F68B74201D08B4224D9824215D8DC
:105A50000023236001241AE04FF0500383F31188E0
:105A6000BFF36F8FBFF34F8FFEE74FF0500383F309
:105A70001188BFF36F8FBFF34F8FFEE75B1A13449C
:105A800023602846FFF7C0FF002400E0002400F058
:105A900013FF2046F8BD0124F9E700BF14090020D8
:105AA000CC080020014B01221A6070471809002021
:105AB000014B1868704700BF1C040020054B1B6891
:105AC00033B1054B1B680BB10020704702207047B3
:105AD00001207047E80800209008002000283ED0F0
